{
  "contractName": "EthCash",
  "abi": [
    {
      "constant": false,
      "inputs": [
        {
          "name": "_hId",
          "type": "uint256"
        },
        {
          "name": "_hPassword",
          "type": "uint256"
        }
      ],
      "name": "createCoin",
      "outputs": [],
      "payable": true,
      "stateMutability": "payable",
      "type": "function"
    },
    {
      "constant": true,
      "inputs": [
        {
          "name": "_hId",
          "type": "uint256"
        }
      ],
      "name": "getValue",
      "outputs": [
        {
          "name": "",
          "type": "uint256"
        }
      ],
      "payable": false,
      "stateMutability": "view",
      "type": "function"
    },
    {
      "constant": true,
      "inputs": [
        {
          "name": "_hId",
          "type": "uint256"
        }
      ],
      "name": "isLocked",
      "outputs": [
        {
          "name": "",
          "type": "bool"
        }
      ],
      "payable": false,
      "stateMutability": "view",
      "type": "function"
    },
    {
      "constant": false,
      "inputs": [
        {
          "name": "_hId",
          "type": "uint256"
        }
      ],
      "name": "lock",
      "outputs": [],
      "payable": false,
      "stateMutability": "nonpayable",
      "type": "function"
    },
    {
      "constant": false,
      "inputs": [
        {
          "name": "_hId",
          "type": "uint256"
        },
        {
          "name": "password",
          "type": "string"
        }
      ],
      "name": "redeem",
      "outputs": [],
      "payable": false,
      "stateMutability": "nonpayable",
      "type": "function"
    }
  ],
  "bytecode": "0x606060405261012c600055341561001557600080fd5b61078b806100246000396000f30060606040526004361061006d576000357c0100000000000000000000000000000000000000000000000000000000900463ffffffff1680630ff4c9161461007257806324b76fd5146100a9578063c5b1ebb51461010f578063dd46706414610130578063f6aacfb114610153575b600080fd5b341561007d57600080fd5b610093600480803590602001909190505061018e565b6040518082815260200191505060405180910390f35b34156100b457600080fd5b61010d600480803590602001909190803590602001908201803590602001908080601f016020809104026020016040519081016040528093929190818152602001838380828437820191505050505050919050506101ae565b005b61012e600480803590602001909190803590602001909190505061039d565b005b341561013b57600080fd5b6101516004808035906020019091905050610470565b005b341561015e57600080fd5b610174600480803590602001909190505061055a565b604051808215151515815260200191505060405180910390f35b600060016000838152602001908152602001600020600201549050919050565b6000806101b9610720565b6101c28561055a565b15156101cd57600080fd5b836040518082805190602001908083835b60208310151561020357805182526020820191506020810190506020830392506101de565b6001836020036101000a03801982511681845116808217855250505050505090500191505060405180910390209250600160008681526020019081526020016000206000015460010291508160001916836000191614151561026457600080fd5b60016000868152602001908152602001600020608060405190810160405290816000820154815260200160018201548152602001600282015481526020016003820160009054906101000a900473ffffffffffffffffffffffffffffffffffffffff1673ffffffffffffffffffffffffffffffffffffffff1673ffffffffffffffffffffffffffffffffffffffff16815250509050806060015173ffffffffffffffffffffffffffffffffffffffff166108fc82604001519081150290604051600060405180830381858888f19350505050151561034157600080fd5b60016000868152602001908152602001600020600080820160009055600182016000905560028201600090556003820160006101000a81549073ffffffffffffffffffffffffffffffffffffffff021916905550505050505050565b6103a5610720565b6000341115156103b457600080fd5b608060405190810160405280838152602001428152602001348152602001600073ffffffffffffffffffffffffffffffffffffffff168152509050806001600085815260200190815260200160002060008201518160000155602082015181600101556040820151816002015560608201518160030160006101000a81548173ffffffffffffffffffffffffffffffffffffffff021916908373ffffffffffffffffffffffffffffffffffffffff160217905550905050505050565b610478610720565b600060016000848152602001908152602001600020608060405190810160405290816000820154815260200160018201548152602001600282015481526020016003820160009054906101000a900473ffffffffffffffffffffffffffffffffffffffff1673ffffffffffffffffffffffffffffffffffffffff1673ffffffffffffffffffffffffffffffffffffffff1681525050915081606001519050600073ffffffffffffffffffffffffffffffffffffffff168173ffffffffffffffffffffffffffffffffffffffff161415610555576105548361060f565b5b505050565b60008060006001600085815260200190815260200160002060030160009054906101000a900473ffffffffffffffffffffffffffffffffffffffff1691506001600085815260200190815260200160002060040160008373ffffffffffffffffffffffffffffffffffffffff1673ffffffffffffffffffffffffffffffffffffffff16815260200190815260200160002054905060005481014210156106035760019250610608565b600092505b5050919050565b336001600083815260200190815260200160002060030160006101000a81548173ffffffffffffffffffffffffffffffffffffffff021916908373ffffffffffffffffffffffffffffffffffffffff160217905550600180600083815260200190815260200160002060050160003373ffffffffffffffffffffffffffffffffffffffff1673ffffffffffffffffffffffffffffffffffffffff16815260200190815260200160002060008282540192505081905550426001600083815260200190815260200160002060040160003373ffffffffffffffffffffffffffffffffffffffff1673ffffffffffffffffffffffffffffffffffffffff1681526020019081526020016000208190555050565b608060405190810160405280600081526020016000815260200160008152602001600073ffffffffffffffffffffffffffffffffffffffff16815250905600a165627a7a72305820dcf7e3bdd964d0660ad26097f90aa8ebd48334c32771bbab15591f9ac50891800029",
  "source": "pragma solidity ^0.4.17;\n\ncontract EthCash {\n\n  uint maxLockTime = 5 minutes;\n  \n  struct EthCoin {\n    // the hashed password for the coin\n    uint hPassword;\n\n    // the block time when the coin was minted\n    uint mintTime;\n\n    // the value of the coin\n    uint value;\n\n    // the recipient to which the coin is locked to\n    address recipient;\n\n    // the block time when the coin was locked to the specified address\n    mapping (address => uint) lockTime;\n\n    // the number of times the coin was locked to the specified address\n    mapping (address => uint) numLocks;\n  }\n\n  mapping (uint => EthCoin) escrowedCoins;\n\n  function createCoin(uint _hId, uint _hPassword) payable public {\n    require(msg.value > 0);\n    EthCoin memory coin = EthCoin({\n      hPassword: _hPassword, \n      mintTime: block.timestamp,\n      value: msg.value, \n      recipient: address(0)\n    });\n    escrowedCoins[_hId] = coin;\n  }\n\n  function getValue(uint _hId) public view returns(uint) {\n    return escrowedCoins[_hId].value;\n  }\n\n  function isLocked(uint _hId) public view returns(bool) {\n    address recipient = escrowedCoins[_hId].recipient;\n    uint lockTime = escrowedCoins[_hId].lockTime[recipient];\n    if (block.timestamp < lockTime + maxLockTime) {\n      return true;\n    } else {\n      return false;\n    }\n  }\n\n  function lock(uint _hId) public {\n    EthCoin memory coin = escrowedCoins[_hId];\n    address currentRecipient = coin.recipient;\n    if (currentRecipient == address(0)) {\n      // coin hasn't been previously locked\n      _lock(_hId);\n    }\n  }\n\n  function redeem(uint _hId, string password) public {\n    require(isLocked(_hId));\n    bytes32 hashedPassword = keccak256(password);\n    bytes32 storedHashedPassword = bytes32(escrowedCoins[_hId].hPassword);\n    require(hashedPassword == storedHashedPassword);\n    EthCoin memory coin = escrowedCoins[_hId];\n    coin.recipient.transfer(coin.value);\n    delete escrowedCoins[_hId];\n  }\n\n  function _lock(uint _hId) private {\n    escrowedCoins[_hId].recipient = msg.sender;\n    escrowedCoins[_hId].numLocks[msg.sender] += 1;\n    escrowedCoins[_hId].lockTime[msg.sender] = block.timestamp;\n  }\n}\n",
  "sourcePath": "/Users/waseemahmad/git/Eth-Cash/contracts/EthCash.sol",
  "compiler": {
    "name": "solc",
    "version": "0.4.19+commit.c4cbbb05.Emscripten.clang"
  },
  "schemaVersion": "1.0.1",
  "updatedAt": "2018-02-18T12:05:46.651Z"
}