{
  "contractName": "EthCash",
  "abi": [
    {
      "constant": false,
      "inputs": [
        {
          "name": "_hId",
          "type": "string"
        },
        {
          "name": "_hPassword",
          "type": "string"
        }
      ],
      "name": "createCoin",
      "outputs": [],
      "payable": true,
      "stateMutability": "payable",
      "type": "function"
    },
    {
      "constant": true,
      "inputs": [
        {
          "name": "_hId",
          "type": "string"
        }
      ],
      "name": "getValue",
      "outputs": [
        {
          "name": "",
          "type": "uint256"
        }
      ],
      "payable": false,
      "stateMutability": "view",
      "type": "function"
    }
  ],
  "bytecode": "0x606060405261012c600055341561001557600080fd5b610437806100246000396000f30060606040526004361061004c576000357c0100000000000000000000000000000000000000000000000000000000900463ffffffff168063172de6da14610051578063960384a0146100e6575b600080fd5b6100e4600480803590602001908201803590602001908080601f0160208091040260200160405190810160405280939291908181526020018383808284378201915050505050509190803590602001908201803590602001908080601f01602080910402602001604051908101604052809392919081815260200183838082843782019150505050505091905050610157565b005b34156100f157600080fd5b610141600480803590602001908201803590602001908080601f01602080910402602001604051908101604052809392919081815260200183838082843782019150505050505091905050610295565b6040518082815260200191505060405180910390f35b61015f61030d565b60003411151561016e57600080fd5b608060405190810160405280838152602001428152602001348152602001600073ffffffffffffffffffffffffffffffffffffffff168152509050806001846040518082805190602001908083835b6020831015156101e257805182526020820191506020810190506020830392506101bd565b6001836020036101000a03801982511681845116808217855250505050505090500191505090815260200160405180910390206000820151816000019080519060200190610231929190610352565b50602082015181600101556040820151816002015560608201518160030160006101000a81548173ffffffffffffffffffffffffffffffffffffffff021916908373ffffffffffffffffffffffffffffffffffffffff160217905550905050505050565b60006001826040518082805190602001908083835b6020831015156102cf57805182526020820191506020810190506020830392506102aa565b6001836020036101000a0380198251168184511680821785525050505050509050019150509081526020016040518091039020600201549050919050565b6080604051908101604052806103216103d2565b81526020016000815260200160008152602001600073ffffffffffffffffffffffffffffffffffffffff1681525090565b828054600181600116156101000203166002900490600052602060002090601f016020900481019282601f1061039357805160ff19168380011785556103c1565b828001600101855582156103c1579182015b828111156103c05782518255916020019190600101906103a5565b5b5090506103ce91906103e6565b5090565b602060405190810160405280600081525090565b61040891905b808211156104045760008160009055506001016103ec565b5090565b905600a165627a7a723058201f34ac4a2f10348be23b23459bb664a659be44bcacc396c44606ae5b889e7ca60029",
  "source": "pragma solidity ^0.4.17;\n\ncontract EthCash {\n\n  uint maxLockTime = 5 minutes;\n  \n  struct EthCoin {\n    // the hashed password for the coin\n    string hPassword;\n\n    // the block time when the coin was minted\n    uint mintTime;\n\n    // the value of the coin\n    uint value;\n\n    // the recipient to which the coin is locked to\n    address recipient;\n\n    // the block time when the coin was locked to the specified address\n    mapping (address => uint) lockTime;\n\n    // the number of times the coin was locked to the specified address\n    mapping (address => uint) numLocks;\n  }\n\n  mapping (string => EthCoin) escrowedCoins;\n\n  function createCoin(string _hId, string _hPassword) payable public {\n    require(msg.value > 0);\n    EthCoin memory coin = EthCoin({\n      hPassword: _hPassword, \n      mintTime: block.timestamp,\n      value: msg.value, \n      recipient: address(0)\n    });\n    escrowedCoins[_hId] = coin;\n  }\n\n  function getValue(string _hId) public view returns(uint) {\n    return escrowedCoins[_hId].value;\n  }\n}\n",
  "sourcePath": "/Users/waseemahmad/git/Eth-Cash/contracts/EthCash.sol",
  "compiler": {
    "name": "solc",
    "version": "0.4.19+commit.c4cbbb05.Emscripten.clang"
  },
  "schemaVersion": "1.0.1",
  "updatedAt": "2018-02-18T06:27:04.332Z"
}